{
  "transactions": [
    {
      "hash": "0xcfb7b20b44e50b53d178e27d5630835597784bf5186362b7f872f014549d9c9a",
      "transactionType": "CALL",
      "contractName": null,
      "contractAddress": "0x77969091a0312e48970fe46c35a9550fccddc113",
      "function": "emergencyExit(bytes)",
      "arguments": [
        "0x0000000000000000000000000000000000000000000000000000000000000001"
      ],
      "transaction": {
        "from": "0xb70649baf7a93eeb95e3946b3a82f8f312477d2b",
        "to": "0x77969091a0312e48970fe46c35a9550fccddc113",
        "gas": "0x11ddc",
        "value": "0x0",
        "input": "0x2c1c1276000000000000000000000000000000000000000000000000000000000000002000000000000000000000000000000000000000000000000000000000000000200000000000000000000000000000000000000000000000000000000000000001",
        "nonce": "0x20",
        "chainId": "0xaa36a7"
      },
      "additionalContracts": [],
      "isFixedGasLimit": false
    }
  ],
  "receipts": [
    {
      "status": "0x1",
      "cumulativeGasUsed": "0x2c348fa",
      "logs": [
        {
          "address": "0x1c7d4b196cb0c7b01d743fbc6116a902379c7238",
          "topics": [
            "0xddf252ad1be2c89b69c2b068fc378daa952ba7f163c4a11628f55a4df523b3ef",
            "0x00000000000000000000000077969091a0312e48970fe46c35a9550fccddc113",
            "0x000000000000000000000000b70649baf7a93eeb95e3946b3a82f8f312477d2b"
          ],
          "data": "0x0000000000000000000000000000000000000000000000000000000000989680",
          "blockHash": "0x6beeb5c84080521a5a772401a1396e1831fc9f30ddd5cf6df9c7a793f333cc0b",
          "blockNumber": "0x87aca0",
          "blockTimestamp": "0x688d17b0",
          "transactionHash": "0xcfb7b20b44e50b53d178e27d5630835597784bf5186362b7f872f014549d9c9a",
          "transactionIndex": "0x12c",
          "logIndex": "0x2fc",
          "removed": false
        },
        {
          "address": "0x77969091a0312e48970fe46c35a9550fccddc113",
          "topics": [
            "0x5b6b431d4476a211bb7d41c20d1aab9ae2321deee0d20be3d9fc9b1093fa6e3d"
          ],
          "data": "0x0000000000000000000000000000000000000000000000000000000000989680",
          "blockHash": "0x6beeb5c84080521a5a772401a1396e1831fc9f30ddd5cf6df9c7a793f333cc0b",
          "blockNumber": "0x87aca0",
          "blockTimestamp": "0x688d17b0",
          "transactionHash": "0xcfb7b20b44e50b53d178e27d5630835597784bf5186362b7f872f014549d9c9a",
          "transactionIndex": "0x12c",
          "logIndex": "0x2fd",
          "removed": false
        },
        {
          "address": "0x77969091a0312e48970fe46c35a9550fccddc113",
          "topics": [
            "0x33707543538a74978cfbe255a9a187ce79ed7695a03a48d36b5a3cf8b569aa52"
          ],
          "data": "0x0000000000000000000000000000000000000000000000000000000000989680000000000000000000000000000000000000000000000000000000000000004000000000000000000000000000000000000000000000000000000000000000200000000000000000000000000000000000000000000000000000000000000001",
          "blockHash": "0x6beeb5c84080521a5a772401a1396e1831fc9f30ddd5cf6df9c7a793f333cc0b",
          "blockNumber": "0x87aca0",
          "blockTimestamp": "0x688d17b0",
          "transactionHash": "0xcfb7b20b44e50b53d178e27d5630835597784bf5186362b7f872f014549d9c9a",
          "transactionIndex": "0x12c",
          "logIndex": "0x2fe",
          "removed": false
        }
      ],
      "logsBloom": "0x00000000008000000000000000000000000000000000000000000000000200000000000000000000000000000000000000000000000000000000000000000000000000000000000000000008000000000000000000000000000000000000000000000000000000000000080000080000000000000000000000000010000000000000000000100001000000000000000000000000000000000000000000000010000000000000000000000000000000000000000008002000000000000000000000000002000000000004001000000000000000000000000200000200000000000000000000000000000010000010000000000000100000000000000000000100",
      "type": "0x2",
      "transactionHash": "0xcfb7b20b44e50b53d178e27d5630835597784bf5186362b7f872f014549d9c9a",
      "transactionIndex": "0x12c",
      "blockHash": "0x6beeb5c84080521a5a772401a1396e1831fc9f30ddd5cf6df9c7a793f333cc0b",
      "blockNumber": "0x87aca0",
      "gasUsed": "0xcef6",
      "effectiveGasPrice": "0x23e006",
      "from": "0xb70649baf7a93eeb95e3946b3a82f8f312477d2b",
      "to": "0x77969091a0312e48970fe46c35a9550fccddc113",
      "contractAddress": null
    }
  ],
  "libraries": [],
  "pending": [],
  "returns": {},
  "timestamp": 1754077105,
  "chain": 11155111,
  "commit": "134f7bf"
}