{
  "transactions": [
    {
      "hash": "0x19d27110e1b057d7c68f0a7ded107843f5106021b54e30186a6b643c3ccacb03",
      "transactionType": "CREATE",
      "contractName": "Strategies",
      "contractAddress": "0x77969091a0312e48970fe46c35a9550fccddc113",
      "function": null,
      "arguments": [
        "0x1c7D4B196Cb0C7B01d743Fbc6116a902379C7238",
        "0x3A9D48AB9751398BbFa63ad67599Bb04e4BdF98b",
        "0x12345678",
        "0x87654321",
        "0x11111111",
        "0x22222222"
      ],
      "transaction": {
        "from": "0xb70649baf7a93eeb95e3946b3a82f8f312477d2b",
        "gas": "0x1791da",
        "value": "0x0",
        "input": "0x610140346101d457601f61161d38819003918201601f19168301916001600160401b038311848410176101d85780849260c0946040528339810103126101d457610048816101ec565b90610055602082016101ec565b61006160408301610200565b61006d60608401610200565b9161008660a061007f60808701610200565b9501610200565b60015f55946001600160a01b0381161561018f576001600160a01b0382161561014a5760805260a05260c05260e052610100526101205260405161140790816102168239608051818181610365015281816104400152818161063601528181610e320152610ee4015260a05181818161067c01528181610bae01528181610d570152611106015260c0518181816105910152610804015260e05181610984015261010051818181610b2401526110b8015261012051818181610b690152610d910152f35b60405162461bcd60e51b815260206004820152601860248201527f496e76616c69642070726f746f636f6c206164647265737300000000000000006044820152606490fd5b60405162461bcd60e51b815260206004820152601560248201527f496e76616c696420746f6b656e206164647265737300000000000000000000006044820152606490fd5b5f80fd5b634e487b7160e01b5f52604160045260245ffd5b51906001600160a01b03821682036101d457565b51906001600160e01b0319821682036101d45756fe60806040526004361015610011575f80fd5b5f3560e01c806312065fe01461013457806316c38b3c1461012f5780631c03e6cc1461012a5780632495a599146101255780632c1c12761461012057806338c1d4671461011b578063504ee05a1461011657806359efcb15146101115780635c975abb1461010c5780635d2e0470146101075780635da9e169146101025780636817031b146100fd578063870240b3146100f8578063870e4bef146100f35780638ce74426146100ee578063ce5c7f61146100e9578063e190febc146100e45763fbfa77cf146100df575f80fd5b610c98565b610c69565b610bdd565b610b99565b610b54565b610b0f565b610a3f565b6109e5565b61096f565b61094a565b6105c1565b61057c565b61054a565b6103f1565b610350565b610252565b610164565b34610156575f36600319011261015657602061014e610d55565b604051908152f35b5f80fd5b8015150361015657565b34610156576020366003190112610156576004356101818161015a565b600154906001600160a01b03821680156102215733036101e2577f6c44c1c6e888a23752ec9c1d8f194bfb0ea295ccdb49b3da95d5be50c9db97699160209115159060ff60a01b8260a01b169060ff60a01b191617600155604051908152a1005b60405162461bcd60e51b815260206004820152601360248201527213db9b1e481859d95b9d0818d85b8818d85b1b606a1b6044820152606490fd5b0390fd5b63543b841f60e01b5f5260045ffd5b6020906003190112610156576004356001600160a01b03811681036101565790565b346101565761026036610230565b6001546001600160a01b031680156102215733036101e2576001600160a01b03811690811561031357806102c06102bb6102b76102b06102ed9560018060a01b03165f52600260205260405f2090565b5460ff1690565b1590565b610f12565b6001600160a01b0381165f9081526002602052604090206102e890805460ff19166001179055565b610f54565b7ff3e4c2c64e71e6ba2eaab9a599bced62f9eb91d2cda610bf41aa8c80ff2cf8265f80a2005b60405162461bcd60e51b8152602060048201526015602482015274496e76616c696420746f6b656e206164647265737360581b6044820152606490fd5b34610156575f366003190112610156576040517f00000000000000000000000000000000000000000000000000000000000000006001600160a01b03168152602090f35b9181601f840112156101565782359167ffffffffffffffff8311610156576020838186019501011161015657565b6020600319820112610156576004359067ffffffffffffffff8211610156576103ed91600401610394565b9091565b34610156576103ff366103c2565b6001549091906001600160a01b031680156102215733036101e2576104226111dc565b6040516370a0823160e01b8152306004820152916001600160a01b037f00000000000000000000000000000000000000000000000000000000000000001690602084602481855afa908115610545577f33707543538a74978cfbe255a9a187ce79ed7695a03a48d36b5a3cf8b569aa52945f92610512575b508192826104e6936104f4575b50506040518381527f5b6b431d4476a211bb7d41c20d1aab9ae2321deee0d20be3d9fc9b1093fa6e3d9080602081015b0390a160405193849384610fe9565b0390a16104f260015f55565b005b60015461050b92906001600160a01b0316906111fa565b5f836104a7565b6104e692506105389060203d60201161053e575b6105308183610cd4565b810190610d46565b9161049a565b503d610526565b610fbe565b34610156576001600160a01b0361056036610230565b165f526002602052602060ff60405f2054166040519015158152f35b34610156575f366003190112610156576040517f00000000000000000000000000000000000000000000000000000000000000006001600160e01b0319168152602090f35b346101565760403660031901126101565760043560243567ffffffffffffffff8111610156576105f5903690600401610394565b6001549092906001600160a01b031680156102215733036101e2576106186111dc565b60015460ff8160a01c1661093b57811561092c576001600160a01b037f00000000000000000000000000000000000000000000000000000000000000008116916106679184911630908461123d565b604051636eb1769f60e11b81523060048201527f00000000000000000000000000000000000000000000000000000000000000006001600160a01b03811660248301529190602081604481855afa908115610545575f9161090d575b50838110610851575b5084156107fd575f806106e0368888611015565b60208151910182865af1916106f3610d17565b921561075b575050506104e67f2e733a17851169f232b3859260eb3ad2a086afd54e999eb4ea9afb7791702e4193610729611281565b6040518381527f4d6ce1e535dbade1c23defba91e23b8f791ce5edc0cc320257a2b364e4e384269080602081016104d7565b60405163095ea7b360e01b81526001600160a01b039190911660048201525f60248201819052909291602091849160449183915af19182156105455761021d926107d0575b5060609080516107c5575b5060405163f8e68f2360e01b81529182916004830161104b565b6020915001826107ab565b6107f19060203d6020116107f6575b6107e98183610cd4565b810190611000565b6107a0565b503d6107df565b5f806040517f0000000000000000000000000000000000000000000000000000000000000000602082015261084c8161083e88602483019190602083019252565b03601f198101835282610cd4565b6106e0565b6108ad575b60405163095ea7b360e01b81526001600160a01b0383166004820152602481018490526020816044815f865af1801561054557156106cc576108a69060203d6020116107f6576107e98183610cd4565b505f6106cc565b60405163095ea7b360e01b81526001600160a01b03831660048201525f6024820152602081806044810103815f865af18015610545576108ee575b50610856565b6109069060203d6020116107f6576107e98183610cd4565b505f6108e8565b610926915060203d60201161053e576105308183610cd4565b5f6106c3565b63162908e360e11b5f5260045ffd5b63e628b94960e01b5f5260045ffd5b34610156575f36600319011261015657602060ff60015460a01c166040519015158152f35b34610156575f366003190112610156576040517f00000000000000000000000000000000000000000000000000000000000000006001600160e01b0319168152602090f35b634e487b7160e01b5f52603260045260245ffd5b6003548110156109e05760035f5260205f2001905f90565b6109b4565b34610156576020366003190112610156576004356003548110156101565760035f527fc2575a0e9e593c00f959f8c92f12db2869c3395a3b0502d05e2516446f71f85b01546040516001600160a01b039091168152602090f35b3461015657610a4d36610230565b6001600160a01b03811615610ad2576001547fe7ae49f883c825b05681b3e00e8be6fdea9ed2a8a45e4c6ecb9390fc44cce61591610acd91610a98906001600160a01b031615611075565b600180546001600160a01b0319166001600160a01b0383161790556040516001600160a01b0390911681529081906020820190565b0390a1005b60405162461bcd60e51b8152602060048201526015602482015274496e76616c6964207661756c74206164647265737360581b6044820152606490fd5b34610156575f366003190112610156576040517f00000000000000000000000000000000000000000000000000000000000000006001600160e01b0319168152602090f35b34610156575f366003190112610156576040517f00000000000000000000000000000000000000000000000000000000000000006001600160e01b0319168152602090f35b34610156575f366003190112610156576040517f00000000000000000000000000000000000000000000000000000000000000006001600160a01b03168152602090f35b3461015657610beb366103c2565b6001549091906001600160a01b031680156102215733036101e257610c0e6111dc565b6001546001600160a01b031680156102215733036101e25781610c527fac04581c930eefb60cf2509de6e2388cbcde488697b9c13ca8dc5cddc817186093836110b5565b6104e6604051928392602084526020840191610fc9565b3461015657610c77366103c2565b6001546001600160a01b031680156102215733036101e2576104f2916110b5565b34610156575f366003190112610156576001546040516001600160a01b039091168152602090f35b634e487b7160e01b5f52604160045260245ffd5b90601f8019910116810190811067ffffffffffffffff821117610cf657604052565b610cc0565b67ffffffffffffffff8111610cf657601f01601f191660200190565b3d15610d41573d90610d2882610cfb565b91610d366040519384610cd4565b82523d5f602084013e565b606090565b90816020910312610156575190565b7f00000000000000000000000000000000000000000000000000000000000000006001600160a01b038116158015610ee1575b610edc576040517f00000000000000000000000000000000000000000000000000000000000000006020820181815230602484015290915f918291610dd0816044810161083e565b5190855afa610ddd610d17565b9080610ed0575b610eae57505f80604051602081019084825260048152610e05602482610cd4565b5190855afa610e12610d17565b9080610ec4575b610eae5750604051602081019182526001600160a01b037f00000000000000000000000000000000000000000000000000000000000000001660248201523060448201525f9283929091610e70816064810161083e565b51915afa610e7c610d17565b9080610ea2575b610e8c57505f90565b80602080610e9f93518301019101610d46565b90565b50602081511015610e83565b9050610e9f915060208082518301019101610d46565b50602081511015610e19565b50602081511015610de4565b505f90565b507f00000000000000000000000000000000000000000000000000000000000000006001600160a01b031615610d88565b15610f1957565b60405162461bcd60e51b8152602060048201526013602482015272151bdad95b88185b1c9958591e481859191959606a1b6044820152606490fd5b60035468010000000000000000811015610cf657600181016003556003548110156109e05760035f527fc2575a0e9e593c00f959f8c92f12db2869c3395a3b0502d05e2516446f71f85b0180546001600160a01b0319166001600160a01b03909216919091179055565b6040513d5f823e3d90fd5b908060209392818452848401375f828201840152601f01601f1916010190565b604090610e9f949281528160208201520191610fc9565b908160209103126101565751610e9f8161015a565b92919261102182610cfb565b9161102f6040519384610cd4565b829481845281830111610156578281602093845f960137010152565b602060409281835280519182918282860152018484015e5f828201840152601f01601f1916010190565b1561107c57565b60405162461bcd60e51b815260206004820152601160248201527015985d5b1d08185b1c9958591e481cd95d607a1b6044820152606490fd5b907f00000000000000000000000000000000000000000000000000000000000000006001600160e01b03198116156111d7575f92839280156111b8576110fd92503691611015565b602081519101827f00000000000000000000000000000000000000000000000000000000000000005af161112f610d17565b9015611171575061113e611281565b6040515f81527f7bb2b3c10797baccb6f8c4791f1edd6ca2f0d028ee0eda64b01a9a57e3a653f79080602081015b0390a1565b61116c7f9dfb4d0b6d3a7d9eb497af2461924460d2c49b902ff4fc2934b6a472d239028d9160609080516111ad575b506040519182918261104b565b60209150015f6111a0565b5050604051906020820152600481526111d2602482610cd4565b6110fd565b505050565b60025f54146111eb5760025f55565b633ee5aeb560e01b5f5260045ffd5b60405163a9059cbb60e01b60208201526001600160a01b0392909216602483015260448083019390935291815261123b91611236606483610cd4565b611379565b565b6040516323b872dd60e01b60208201526001600160a01b03928316602482015292909116604483015260648083019390935291815261123b91611236608483610cd4565b600354600a8111156113745750600a5b5f5b81811061129e575050565b6112c16112aa826109c8565b90546001600160a01b039260039290921b1c821690565b6040516370a0823160e01b8152306004820152929116602083602481845afa8015610545576001935f91611356575b50806112ff575b505001611293565b83547fd2b15471a0072ae32e0a1ff293c39098f5d37d8d55eeb8b17b9fe94b2260c0319161134c9161133c9082906001600160a01b0316866111fa565b6040519081529081906020820190565b0390a25f806112f7565b61136e915060203d811161053e576105308183610cd4565b5f6112f0565b611291565b905f602091828151910182855af115610fbe575f513d6113c857506001600160a01b0381163b155b6113a85750565b635274afe760e01b5f9081526001600160a01b0391909116600452602490fd5b600114156113a156fea2646970667358221220182c48e2996ce332bb98e688a144b28d79ecad3065386dfa136f474970997b4a64736f6c634300081a00330000000000000000000000001c7d4b196cb0c7b01d743fbc6116a902379c72380000000000000000000000003a9d48ab9751398bbfa63ad67599bb04e4bdf98b1234567800000000000000000000000000000000000000000000000000000000876543210000000000000000000000000000000000000000000000000000000011111111000000000000000000000000000000000000000000000000000000002222222200000000000000000000000000000000000000000000000000000000",
        "nonce": "0x17",
        "chainId": "0xaa36a7"
      },
      "additionalContracts": [],
      "isFixedGasLimit": false
    },
    {
      "hash": "0xa1266c8fe8d9d8516b98045efcd2ac8095902c9f6888682e53482364e1dae867",
      "transactionType": "CALL",
      "contractName": "Strategies",
      "contractAddress": "0x77969091a0312e48970fe46c35a9550fccddc113",
      "function": "setVault(address)",
      "arguments": [
        "0xb70649baF7A93EEB95E3946b3A82F8F312477d2b"
      ],
      "transaction": {
        "from": "0xb70649baf7a93eeb95e3946b3a82f8f312477d2b",
        "to": "0x77969091a0312e48970fe46c35a9550fccddc113",
        "gas": "0x10302",
        "value": "0x0",
        "input": "0x6817031b000000000000000000000000b70649baf7a93eeb95e3946b3a82f8f312477d2b",
        "nonce": "0x18",
        "chainId": "0xaa36a7"
      },
      "additionalContracts": [],
      "isFixedGasLimit": false
    },
    {
      "hash": "0x1c07bbdb652e493160d519545faadf8ac86db0ad0a13515629833933ab74f848",
      "transactionType": "CALL",
      "contractName": null,
      "contractAddress": "0x1c7d4b196cb0c7b01d743fbc6116a902379c7238",
      "function": "approve(address,uint256)",
      "arguments": [
        "0x77969091a0312E48970Fe46C35a9550FccdDC113",
        "10000000"
      ],
      "transaction": {
        "from": "0xb70649baf7a93eeb95e3946b3a82f8f312477d2b",
        "to": "0x1c7d4b196cb0c7b01d743fbc6116a902379c7238",
        "gas": "0x12b1b",
        "value": "0x0",
        "input": "0x095ea7b300000000000000000000000077969091a0312e48970fe46c35a9550fccddc1130000000000000000000000000000000000000000000000000000000000989680",
        "nonce": "0x19",
        "chainId": "0xaa36a7"
      },
      "additionalContracts": [],
      "isFixedGasLimit": false
    },
    {
      "hash": "0x295b94335fe38d684e32f394bed7de12dbe4562dfe1cd5b2e95b0de0bdb520b8",
      "transactionType": "CALL",
      "contractName": "Strategies",
      "contractAddress": "0x77969091a0312e48970fe46c35a9550fccddc113",
      "function": "emergencyExit(bytes)",
      "arguments": [
        "0x0000000000000000000000000000000000000000000000000000000000000001"
      ],
      "transaction": {
        "from": "0xb70649baf7a93eeb95e3946b3a82f8f312477d2b",
        "to": "0x77969091a0312e48970fe46c35a9550fccddc113",
        "gas": "0xe3b7",
        "value": "0x0",
        "input": "0x2c1c1276000000000000000000000000000000000000000000000000000000000000002000000000000000000000000000000000000000000000000000000000000000200000000000000000000000000000000000000000000000000000000000000001",
        "nonce": "0x1a",
        "chainId": "0xaa36a7"
      },
      "additionalContracts": [],
      "isFixedGasLimit": false
    }
  ],
  "receipts": [
    {
      "status": "0x1",
      "cumulativeGasUsed": "0x1ab2cce",
      "logs": [],
      "logsBloom": "0x00000000000000000000000000000000000000000000000000000000000000000000000000000000000000000000000000000000000000000000000000000000000000000000000000000000000000000000000000000000000000000000000000000000000000000000000000000000000000000000000000000000000000000000000000000000000000000000000000000000000000000000000000000000000000000000000000000000000000000000000000000000000000000000000000000000000000000000000000000000000000000000000000000000000000000000000000000000000000000000000000000000000000000000000000000000",
      "type": "0x2",
      "transactionHash": "0x19d27110e1b057d7c68f0a7ded107843f5106021b54e30186a6b643c3ccacb03",
      "transactionIndex": "0xdb",
      "blockHash": "0x6d1f9271079038e16b19144d3497a64b632c0fc8816d546fdcb0b50fdbf2d7c9",
      "blockNumber": "0x877ccc",
      "gasUsed": "0x12216d",
      "effectiveGasPrice": "0xf4379",
      "from": "0xb70649baf7a93eeb95e3946b3a82f8f312477d2b",
      "to": null,
      "contractAddress": "0x77969091a0312e48970fe46c35a9550fccddc113"
    },
    {
      "status": "0x1",
      "cumulativeGasUsed": "0x1abdde8",
      "logs": [
        {
          "address": "0x77969091a0312e48970fe46c35a9550fccddc113",
          "topics": [
            "0xe7ae49f883c825b05681b3e00e8be6fdea9ed2a8a45e4c6ecb9390fc44cce615"
          ],
          "data": "0x000000000000000000000000b70649baf7a93eeb95e3946b3a82f8f312477d2b",
          "blockHash": "0x6d1f9271079038e16b19144d3497a64b632c0fc8816d546fdcb0b50fdbf2d7c9",
          "blockNumber": "0x877ccc",
          "blockTimestamp": "0x688ace98",
          "transactionHash": "0xa1266c8fe8d9d8516b98045efcd2ac8095902c9f6888682e53482364e1dae867",
          "transactionIndex": "0xdc",
          "logIndex": "0x185",
          "removed": false
        }
      ],
      "logsBloom": "0x00000000000000000000000000000000000000000000000000000000000020000000000000000000000000000000000000000000000000000000000000000000000000000040000000000000000000000000000000000000000000000000000000000000000000000000080000000000000000000000000000000000000000000000000000000000000000000000000000000000000000000000000000000000000000000000000000000000000000000000000000000000000000000800000000000000000000000000001000000000000000000000000000000000000000000000000000000000000000000010000000000000000000000000000000000000",
      "type": "0x2",
      "transactionHash": "0xa1266c8fe8d9d8516b98045efcd2ac8095902c9f6888682e53482364e1dae867",
      "transactionIndex": "0xdc",
      "blockHash": "0x6d1f9271079038e16b19144d3497a64b632c0fc8816d546fdcb0b50fdbf2d7c9",
      "blockNumber": "0x877ccc",
      "gasUsed": "0xb11a",
      "effectiveGasPrice": "0xf4379",
      "from": "0xb70649baf7a93eeb95e3946b3a82f8f312477d2b",
      "to": "0x77969091a0312e48970fe46c35a9550fccddc113",
      "contractAddress": null
    },
    {
      "status": "0x1",
      "cumulativeGasUsed": "0x1ad087d",
      "logs": [
        {
          "address": "0x1c7d4b196cb0c7b01d743fbc6116a902379c7238",
          "topics": [
            "0x8c5be1e5ebec7d5bd14f71427d1e84f3dd0314c0f7b2291e5b200ac8c7c3b925",
            "0x000000000000000000000000b70649baf7a93eeb95e3946b3a82f8f312477d2b",
            "0x00000000000000000000000077969091a0312e48970fe46c35a9550fccddc113"
          ],
          "data": "0x0000000000000000000000000000000000000000000000000000000000989680",
          "blockHash": "0x6d1f9271079038e16b19144d3497a64b632c0fc8816d546fdcb0b50fdbf2d7c9",
          "blockNumber": "0x877ccc",
          "blockTimestamp": "0x688ace98",
          "transactionHash": "0x1c07bbdb652e493160d519545faadf8ac86db0ad0a13515629833933ab74f848",
          "transactionIndex": "0xde",
          "logIndex": "0x186",
          "removed": false
        }
      ],
      "logsBloom": "0x00000000000000000000000000000000000000000000000000000000000200000000000000000000000000000000000000000000000000000000000000200000000000000000000000000000000000000000000000000000000000000000000000000000000000000000000000080000000000000000000000000000000000000000000000100001000000000000000000000000000000000000000000000000020000000000000000000000000000000000000000002000000000000000000000000000000000000000000000000000000000000000000200000200000000000010000000000000000010000000000000000000100000000000000000000000",
      "type": "0x2",
      "transactionHash": "0x1c07bbdb652e493160d519545faadf8ac86db0ad0a13515629833933ab74f848",
      "transactionIndex": "0xde",
      "blockHash": "0x6d1f9271079038e16b19144d3497a64b632c0fc8816d546fdcb0b50fdbf2d7c9",
      "blockNumber": "0x877ccc",
      "gasUsed": "0xd88d",
      "effectiveGasPrice": "0xf4379",
      "from": "0xb70649baf7a93eeb95e3946b3a82f8f312477d2b",
      "to": "0x1c7d4b196cb0c7b01d743fbc6116a902379c7238",
      "contractAddress": null
    },
    {
      "status": "0x1",
      "cumulativeGasUsed": "0x1adad5b",
      "logs": [
        {
          "address": "0x77969091a0312e48970fe46c35a9550fccddc113",
          "topics": [
            "0x5b6b431d4476a211bb7d41c20d1aab9ae2321deee0d20be3d9fc9b1093fa6e3d"
          ],
          "data": "0x0000000000000000000000000000000000000000000000000000000000000000",
          "blockHash": "0x6d1f9271079038e16b19144d3497a64b632c0fc8816d546fdcb0b50fdbf2d7c9",
          "blockNumber": "0x877ccc",
          "blockTimestamp": "0x688ace98",
          "transactionHash": "0x295b94335fe38d684e32f394bed7de12dbe4562dfe1cd5b2e95b0de0bdb520b8",
          "transactionIndex": "0xdf",
          "logIndex": "0x187",
          "removed": false
        },
        {
          "address": "0x77969091a0312e48970fe46c35a9550fccddc113",
          "topics": [
            "0x33707543538a74978cfbe255a9a187ce79ed7695a03a48d36b5a3cf8b569aa52"
          ],
          "data": "0x0000000000000000000000000000000000000000000000000000000000000000000000000000000000000000000000000000000000000000000000000000004000000000000000000000000000000000000000000000000000000000000000200000000000000000000000000000000000000000000000000000000000000001",
          "blockHash": "0x6d1f9271079038e16b19144d3497a64b632c0fc8816d546fdcb0b50fdbf2d7c9",
          "blockNumber": "0x877ccc",
          "blockTimestamp": "0x688ace98",
          "transactionHash": "0x295b94335fe38d684e32f394bed7de12dbe4562dfe1cd5b2e95b0de0bdb520b8",
          "transactionIndex": "0xdf",
          "logIndex": "0x188",
          "removed": false
        }
      ],
      "logsBloom": "0x00000000008000000000000000000000000000000000000000000000000000000000000000000000000000000000000000000000000000000000000000000000000000000000000000000000000000000000000000000000000000000000000000000000000000000000080000000000000000000000000000000000000000000000000000000000000000000000000000000000000000000000000000000010000000000000000000000000000000000000000008000000000000000000000000000000000000000004001000000000000000000000000000000000000000000000000000000000000000000010000000000000100000000000000000000100",
      "type": "0x2",
      "transactionHash": "0x295b94335fe38d684e32f394bed7de12dbe4562dfe1cd5b2e95b0de0bdb520b8",
      "transactionIndex": "0xdf",
      "blockHash": "0x6d1f9271079038e16b19144d3497a64b632c0fc8816d546fdcb0b50fdbf2d7c9",
      "blockNumber": "0x877ccc",
      "gasUsed": "0xa4de",
      "effectiveGasPrice": "0xf4379",
      "from": "0xb70649baf7a93eeb95e3946b3a82f8f312477d2b",
      "to": "0x77969091a0312e48970fe46c35a9550fccddc113",
      "contractAddress": null
    }
  ],
  "libraries": [],
  "pending": [],
  "returns": {},
  "timestamp": 1753927321,
  "chain": 11155111,
  "commit": null
}